:020000002C2CA6
:0E000600213083120313FD00FD0B07280800B4
:06001400000000000800DE
:10001A000F3083120313FC004730FD00FD0B132839
:0A002A00FC0B132800000000080082
:1000340083160313D31B21288312881123288312C8
:1000440088158316531B2928831208112B28831221
:1000540008158316D31A3128831288103328831283
:1000640088148316531A3928831208103B288312E4
:1000740008146F183F2808164028081288160A200A
:1000840088128316D3194928831288114B288312A6
:100094008815831653195128831208115328831283
:1000A40008158316D3185928831288105B288312E5
:1000B4008814831653186128831208106328831246
:1000C40008146F18672808166828081288160A206A
:0E00D40088126F1C6F280D2070280320080072
:0800E200FA1FF21300300800C0
:1000EA00831203136F1083165208D3001A206F1459
:0200FA000800FC
:1000FC007B15FB1F88280130F300F201F101F001A0
:08010C00FA0DF20CFF300800AF
:1001140083120313F801F9011030FC00710DF80D7E
:10012400F90D7408F8027508031C750FF902031819
:10013400A2287408F80775080318750FF907031047
:0A014400F00DF10DFC0B90280800EF
:0E014E00F201F101F001F801F30100300800A8
:10015C00710DF80DF90D7408F8027508031C750F74
:10016C00F902F00DF10D0F30FC00710DF80DF90DC9
:10017C007408701CC728F8027508031C750FF90267
:10018C00CC28F80775080318750FF907F00DF10D59
:10019C00FC0BBB287018D8287408F80775080318CE
:0801AC00750FF90700000800BF
:1001B40083160313CE014E084D078400000803196B
:1001C400EC284E084D0784000008D20075208316E1
:0601D400CE0ADD28080040
:0601DA00FB15FF300800D8
:1001E000FB14FB1FFA28FF30F300F200F100F000CF
:0801F000FA0DF20CFF300800CB
:1001F8007B14FB1F0729F201FA1FFF30F200F10000
:0A020800F000FA0DF20CFF300800C0
:100212001B29803083160313CD002E29C030CD0058
:100222002E299430CD002E29D430CD002E298030B5
:10023200CD002E29831603134D08013A03190A290A
:100242004D08023A03190F294D08033A03191229DE
:100252004D08043A0319152918294E03F0004D08D8
:10026200F0077008CD007008D3001A206F108316B3
:10027200D00150084F07840000080319492950088B
:100282004F0784000008D20075208316D00A3A294D
:0602920083126F14080046
:0E029800831603133E088A003D08820008000A
:1002A600A0017208031D68297108F2007008F100A8
:1002B600F001A0157208031D68297108F200F1010A
:1002C600A01120167208031976292008F302031DCF
:1002D600031C7A290310F21B7E29F00DF10DF20D95
:1002E600F30B6E297A290130FC00A7208129023000
:0E02F600FC007E2081290430FC0071200800ED
:1003040083160313CE01CF014D08F2004D08F3000C
:10031400720884000008203A031D95294E084F04F2
:10032400031D9529A2290130CE000030CF007208A8
:1003340084000008F0007308840070088000F30A49
:100344007208F100F20A710884000008003A031DE3
:080354008A294D08F0000800A1
:10035C0083160313D001053050020318BC29500832
:10036C004F07840020308000D00AB12950084F0775
:10037C0084008001D00350084F07D1000A30F400EC
:10038C00F5014D08F0004E08F1008A207808F000C5
:10039C007908F1003030F00783165108840070089A
:1003AC0080000A30F400F5014D08F0004E08F10011
:1003BC008A2070088316CD007108CE0000307106BB
:1003CC00031DEA2900307006031DED29EF29D00327
:0403DC00C12908002B
:1003E000831203137408003A031DFF297508003AAD
:1003F000031DFF29FF30F0007F30F100582A8312DF
:100400000313FD01F901F8017108700403190034A8
:1004100071087506FA00FA1BFD09FB01F51F152A84
:10042000F409F509F40A0319F50AF11F1C2AF00969
:10043000F109F00A0319F10A71087504FA00FA1BB0
:10044000312AAE207B18442AFD1F0034F009F1093F
:10045000F00A0319F10AF809F909F80A0319F90A67
:100460000034F51F402AF11B3C2A7108F90070087E
:10047000F800F101F001242AF101F001F00A003442
:10048000F109F009FB0A212AF80A0319F90A74088C
:100490007802031D242A75087902031D242AF90114
:1004A000F801F00A0319F10AF11F242A0000FF34B1
:0204B000080042
:1004B200831603134408CD004508CE00C630CF0092
:1004C200AE21C630CD0082210230CD000130CE00F7
:1004D200A030CF00092102308316CD000830CE00B3
:1004E200C630CF00092165308316CD00DA2008001E
:1004F200831203137408003A031D942A7508003A04
:10050200031D942A7608003A031D942A7708003ABC
:10051200031D942AFF30F000FF30F1007F30F2001B
:10052200FF30F3002F2B8312031377080319232BB9
:1005320073080319262B720876068039FA00F2171F
:10054200F617A0017208F8007108FC007008FD009F
:100552007408FD027508031C750FFC027608031C63
:10056200760FF802F801FC01FD01031CBF2A0310FB
:10057200F20CF10CF00CF80C0130A0007708F30239
:10058200031CC92A7E302007F3070318292BCE2A21
:100592007E302007F307031C2C2B1830FA07FD0DC1
:1005A200FC0DF80DF00DF10DF20DA00D7408F00226
:1005B2007508031C750FF1027608031C760FF20210
:1005C200760DA004201CE72A7D14F22A7408F00795
:1005D20075080318750FF10776080318760AF207F3
:1005E2007D10FA031F307A05031DD02A7B1B7D1C68
:1005F200192B0310F00DF10DF20DA00D7408F0028D
:100602007508031C750FF1027608031C760FF202BF
:10061200760D20040139FD070318FC0A0319F80AB4
:10062200031D192BF80CFC0CFD0CF30A0319292BE2
:10063200FA1FF8137808F2007C08F1007D08F00038
:1006420000302E2B0130ED202E2B0230A7202E2B36
:0E0652000430F0202E2B08307E20000008001F
:10066000831203137008F100F0010830FC007108D8
:10067000F40C03183F2BFC0B382BF1010034031052
:10068000442BF40C0318F107F10CF00CFC0B412B7C
:02069000080060
:1006920083120313FB01FC01FA0173080319762B81
:1006A200FA13F2178630F302F31B5A2B03195A2B53
:1006B200782BF309F30A08307302031C672BF3004B
:1006C200F20DF2017308031D03106E2B7308031958
:1006D2006E2B0310F20CF30B6A2B7B1B721C762B16
:1006E200031C762BF20A03197D2BF101802B7B145C
:1006F200FB1F832BF101832B0130FC00852B003083
:10070200FC00852BFF30FC00FC080319892BFC2020
:060712007208F00008006F
:10071800831603138812081208108810081188110C
:1007280083128812081288110811881008100D20E9
:100738000D200D208814081488160A2088120D2010
:1007480088160A2088120D2088160A2088120D2083
:10075800081088160A2088120D2088160A20881288
:100768008810881588160A2088120D208811081408
:1007780088160A208812081088160A2088120D2068
:1007880088160A208812081488160A2088120D2054
:10079800081088160A208812881508158814081465
:0C07A80088160A2088120D206F1408002B
:1007B400831203137008F8007108F000F101F201CC
:1007C400F301FB01FC019630F300FA017008F1001B
:0C07D4007808F000F801F2015321080041
:1007E0004C218A110A128000840ABD0A0319BE0A2C
:0807F000F003031DF02B0800CB
:1007F800831603134408831203178D0083168C1382
:0A0808000C1483120C08F000080025
:10081200831603178C1C0F2C0000092C03134408A9
:10082200831203178D0083160313450883120317DF
:100832008C0083168C130C150B08F0008B135530AB
:100842008D00AA308D008C14F01B292C8B132A2CBE
:060852008B170C110800D9
:10085800E02583160313BF01C001C101C201C30112
:100868000617861383128613831606108312061042
:10087800831606168312061B422C3E2C8C2301304D
:100888008316D3001A200C308316D3001A20103098
:10089800900001308316CD000630CE006730CF00BF
:1008A800092102308316CD000430CE00B230CF00CB
:1008B80009218316C2014208033C031C892C083015
:1008C800D3001A200630FB001330FC00AD30FD00C9
:1008D800FD0B6C2CFC0B6C2CFB0B6C2C0000000033
:1008E8000C308316D3001A200330FB008A30FC003A
:1008F8005530FD00FD0B7E2CFC0B7E2CFB0B7E2C5B
:10090800000000008316C20A5F2C0130D3001A20B1
:1009180083128E010E088F0006140630FD00FD0BB1
:10092800932C00000610061A9A2C972C1014061EF9
:100938009E2C9B2C10100F08F100F0010E08F004FB
:100948000030F104DA233330F4003330F5006B3033
:10095800F6008430F7007922492370088316BF0017
:10096800700AF1007108BF0000307102031C282DC5
:100978003F08183C031C282D3F08F0006430F400A1
:1009880030231830F4000030F500F0217008643C82
:10099800F2007108031C013EF301F302720883168A
:1009A800C0007308C10000307302031DDD2C5030F5
:1009B8007202031CE92C8312861301308316C400CB
:1009C800C50109240313C301062D0130C400FC230B
:1009D8007008031DFA2C831603134108003C031DFD
:1009E800F72C4008103C0318FA2C062D0313831229
:1009F800861701308316C4000130C5000924013070
:100A08000313C300182D0130CD000130CE00323061
:100A1800CF000921212D01308316CD000130CE00F1
:100A28002130CF000921212D83164308013A0319EB
:100A3800072D4308003A03190F2D83164008C400F8
:100A48004108C5005922602D0130D3001A20013019
:100A58008316CD000130CE004330CF00092102308B
:100A68008316CD000130CE005430CF000921063066
:100A7800FB001330FC00AD30FD00FD0B412DFC0BDD
:100A8800412DFB0B412D0000000008308316D300D8
:100A98001A200330FB008A30FC005530FD00FD0BA6
:100AA800532DFC0B532DFB0B532D000000000C3075
:100AB8008316D3001A2086130630FB001330FC007F
:100AC800AD30FD00FD0B662DFC0B662DFB0B662D76
:080AD800000000008C2C6F2DC2
:100BC00021308400443083120313F0007530831603
:100BD000BD000530BE00F023A03084001230F000CC
:100BE000B9308316BD000530BE00F02365308400A7
:100BF0000230F000DE308316BD000530BE00F02369
:100C0000B23084000B30F000CB308316BD000530CD
:100C1000BE00F023673084000830F000D630831621
:0A0C2000BD000530BE00F0230800FF
:100AEA002A342A342A342A34503455344D34503472
:100AFA0020344F34463446342A342A342A342A34A9
:020B0A000034B5
:100B0C002A342A342A342A34503455344D3450344F
:100B1C00203420344F344E342A342A342A342A34A4
:020B2C00003493
:100B2E002A342A344F345534543420344F34463416
:100B3E002034523441344E34473445342A342A3426
:020B4E00003471
:100B50003D343D343D343D343D343D343D343D340D
:100B60003D343D343D343D343D343D343D343D34FD
:020B700000344F
:100B72003D343D343D343D343D343D343D34203408
:100B82002034203420343D343D343D343D343D3432
:040B92003D340034BA
:100B9600543441344E344B3420344C34453456347A
:060BA60045344C3400341C
:100BAC00573445344C3443344F344D34453400348D
:040BBC0025340034A8
:02400E004A2F37
:00000001FF
